8=FIX.4.4|9=260|35=AE|17=6712|22=1|31=108.9|32=55000.0|39=1|48=23311RAH9|49=BLPCMF|55=DCPMID|56=INCOPCMF|60=20150323-18:18:09|64=20150326|75=20150323|150=F|487=1|570=Y|571=COEJ6821114|6208=BBG004KGYBF5|7085=MBYER1|9009=6712|9701=TEST4|9896=1049|9998=5056275|552=1|54=2|37=878|10=180|
